S01000005247425F73656E732E7372656321
S11300000C9434000C9451000C9451000C94510045
S11300100C9451000C9451000C9451000C94510018
S11300200C9451000C9451000C9451000C94510008
S11300300C9451000C9451000C9451000C945100F8
S11300400C9451000C9451000C9451000C945100E8
S11300500C9451000C9451000C9451000C945100D8
S11300600C9451000C94510011241FBECFEFD8E022
S1130070DEBFCDBF11E0A0E0B1E0ECE1FFE002C0E3
S113008005900D92AC30B107D9F721E0ACE0B1E0B6
S113009001C01D92A031B207E1F70E94F6000C9452
S11300A08C070C94000084EA8093BC00ECEBF0E035
S11300B080818823ECF708958093BB0084E88093C3
S11300C0BC00ECEBF0E080818823ECF7089584EC2D
S11300D08093BC00ECEBF0E080818823ECF7809106
S11300E0BB00089584E98093BC0008950F931F9387
S11300F0CF93DF93EC018B0167E186E10E947301EA
S11301009983888369E188E10E9473019B838A83D0
S11301106BE18AE10E9473019D838C83B801CE0157
S11301200E94BA01882351F0F801608171818281B3
S113013093810E94BD0480930D0181E0DF91CF91F2
S11301401F910F9108950F931F93CF93DF9391E025
S113015098B9882301F181E080930C0180910D010D
S1130160C0910E01D0910F01C60FD71F88838091D3
S11301700E0190910F010196883C910528F490930B
S11301800F0180930E012DC087EC90E090930F0136
S113019080930E0126C018B880910C01813009F5B6
S11301A0EB0180910E0190910F010E947A058091DC
S11301B00E0190910F01892B71F000E010E08991FC
S11301C00E9472050F5F1F4F80910E0190910F01E5
S11301D008171907A0F310920F0110920E01109244
S11301E00C01DF91CF911F910F910895CF93DF936D
S11301F0CDB7DEB7CA5DD1090FB6F894DEBF0FBE26
S1130200CDBF1A8219821C821B821E821D821F820C
S1130210188619861A861B861C861D861E861F86CE
S1130220188A198A1A8AFE01739688ECDF011D92D6
S11302308A95E9F787E087B9E8EBF0E0808180628E
S1130240808389E10E9467058091000190910101FA
S11302500E94390110920C01BE01695F7F4FCE01EB
S113026001960E947600BE016D5E7F4F0E94A3003E
S1130270F3CFEF92FF920F931F93CF93DF93FC0181
S11302802081222349F17C018C010E5F1F4FC0E0C5
S1130290D0E00E945300F7018181880F0E945C0026
S11302A0F80181918F0180680E945C00F8018381CC
S11302B00E945C00C230D10531F48FE697E10197CA
S11302C0F1F700C000000E9472002196F70120811E
S11302D030E0C217D307ECF2DF91CF911F910F9159
S11302E0FF90EF900895CF93DF93C82FD62F0E94ED
S11302F0530082E50E945C008C2F80680E945C00A1
S11303000E9472000E94530083E50E945C000E94D8
S11303106700C82F0E9472000E94530082E50E9469
S11303205C008D2F80680E945C000E9472000E9415
S1130330530083E50E945C000E946700D82F0E944E
S113034072000E94530082E50E945C0080E80E94D3
S11303505C0081E00E945C000E9472008FE697E1DD
S11303600197F1F700C000008C2F90E09D2BDF91E6
S1130370CF9108952F923F924F925F926F927F9206
S11303808F929F92AF92BF92CF92DF92EF92FF92A1
S11303900F931F93CF93DF93CDB7DEB72A970FB692
S11303A0F894DEBF0FBECDBF5C014B01FC01608140
S11303B0718180E090E00E94680620E030E04FE721
S11303C053E40E941F0720E03FEF4FE757E40E94E9
S11303D0F605162F7A878987092FF50162817381C3
S11303E080E090E00E94680620E030E04FE753E4AC
S11303F00E941F0720E03FEF4FE757E40E94F605F5
S1130400C62ED72EE82EF92EF5016481758180E081
S113041090E00E94680620E030E04FE753E40E9439
S11304201F0720E03FEF4FE757E40E94F605462EF2
S1130430572E682E792E2C2D3D2D4E2D5F2D612F9C
S11304407A858985902F0E941A0788236CF0242DC1
S1130450352D462D572D612F7A858985902F0E9441
S11304601A0788230CF01FC22C2D3D2D4E2D5F2D15
S1130470612F7A858985902F0E94F10518166CF0FA
S1130480242D352D462D572D6C2D7D2D8E2D9F2DF4
S11304900E941A07882364F5DEC1242D352D462DCC
S11304A0572D612F7A858985902F0E94F1051816A2
S11304B074F0242D352D462D572D6C2D7D2D8E2D2C
S11304C09F2D0E94F10518160CF0DBC1D5C12C2D0F
S11304D03D2D4E2D5F2D612F7A858985902F0E94A9
S11304E0F1051816B4F0312C212CA12CB12C04C028
S11304F03C2C2D2CAE2CBF2C242D352D462D572DC8
S1130500612F7A858985902F0E94F10518162CF0A9
S113051039C0312C212CA12CB12C2C2D3D2D4E2D4C
S11305205F2D612F7A858985902F0E941A07882371
S113053064F0242D352D462D572D6C2D7D2D8E2DBB
S11305409F2D0E94F105181624F5242D352D462DD6
S1130550572D612F7A858985902F0E941A07882349
S1130560ECF0242D352D462D572D6C2D7D2D8E2D03
S11305709F2D0E941A078823B4F049825A826B8205
S11305807C8239C01983FA85FA8389858B830C832D
S113059032C0C982DA82EB82FC822DC019821A82AF
S11305A01B821C8228C019821A821B821C8223C0CF
S11305B01983EA85EA83F985FB830C831CC0342CF8
S11305C0252CA62CB72C19838A858A83E985EB838D
S11305D00C8311C0312E2A84A984B02E19832A8257
S11305E0AB820C8308C0312E2A84A984B02EC98220
S11305F0DA82EB82FC82232D322D4A2D5B2D698118
S11306007A818B819C810E94F105882309F41FC1A2
S1130610832D922DAA2DBB2DF40180879187A2876B
S1130620B38720E030E0A901632D722D8A2D9B2D24
S11306300E94F105811106C0F4011482158216820C
S1130640178217C0232D322D4A2D5B2D69817A81A3
S11306508B819C810E94F6059B01AC0160E070E0F7
S113066080E89FE30E948405F40164837583868394
S11306709783232D322D4A2D5B2D612F7A85898511
S1130680902F0E94F10581116AC0242D352D462D2D
S1130690572D6C2D7D2D8E2D9F2D0E941A0788239A
S11306A00CF40EC1242D352D462D572D6C2D7D2D8A
S11306B08E2D9F2D0E94840520E030E040E752E417
S11306C00E941F076D837E838F83988729813A81D7
S11306D04B815C81632D722D8A2D9B2D0E94840594
S11306E09B01AC016D817E818F8198850E94F60506
S11306F0F4016083718382839383E2C0242D352DBA
S1130700462D572D6C2D7D2D8E2D9F2D0E948405F9
S113071020E030E040E752E40E941F076D837E83AF
S11307208F83988729813A814B815C81632D722D57
S11307308A2D9B2D0E9484059B01AC016D817E81D5
S11307408F8198850E94F60520E030E044EB53E465
S11307500E948505F4016083718382839383232D32
S1130760322D4A2D5B2D6C2D7D2D8E2D9F2D0E94BB
S1130770F105811131C0212F3A854985502F642D0F
S1130780752D862D972D0E94840520E030E040E7EA
S113079052E40E941F076D837E838F83988729818B
S11307A03A814B815C81632D722D8A2D9B2D0E9491
S11307B084059B01AC016D817E818F8198850E94A7
S11307C0F60520E030E040EF52E40E948505F40194
S11307D06083718382839383232D322D4A2D5B2D75
S11307E0642D752D862D972D0E94F105811131C040
S11307F02C2D3D2D4E2D5F2D612F7A858985902FCF
S11308000E94840520E030E040E752E40E941F0784
S11308106B017C0129813A814B815C81632D722DAE
S11308208A2D9B2D0E9484059B01AC01C701B60152
S11308300E94F60520E030E040E753E40E9485057D
S1130840F401608371838283938381E07DC080E0BF
S11308507BC081E079C0242D352D462D572D612F85
S11308607A858985902F0E94F1051816BCF5312CE4
S1130870212CA12CB12C40CE312C212CA12CB12C1B
S113088004C0342C252CA62CB72C2C2D3D2D4E2DFC
S11308905F2D612F7A858985902F0E94F1051816A6
S11308A00CF43BCE85CE2C2D3D2D4E2D5F2D612F8E
S11308B07A858985902F0E94F10518169CF120C035
S11308C0242D352D462D572D6C2D7D2D8E2D9F2DB0
S11308D00E94F10588230CF411CF41CF242D352D2E
S11308E0462D572D6C2D7D2D8E2D9F2D0E94F105AB
S11308F018160CF064CE312C212CA12CB12CC5CFB0
S1130900242D352D462D572D612F7A858985902FDD
S11309100E94F10518160CF05DCE312E2A84A984AC
S1130920B02E07CE242D352D462D572D6C2D7D2D23
S11309308E2D9F2D0E94F10518160CF054CE312EE9
S11309402A84A984B02E0DCE2A960FB6F894DEBF61
S11309500FBECDBFDF91CF911F910F91FF90EF900C
S1130960DF90CF90BF90AF909F908F907F906F90CB
S11309705F904F903F902F900895CF92DF92EF9227
S1130980FF926B017C0120E030E84CEA53E40E94C2
S11309901A0788230CF087C020E030E040E751E4D8
S11309A0C701B6010E94F10588230CF47EC020E043
S11309B030E040E751E4C701B6010E941A078823DA
S11309C05CF020E030E040EF51E4C701B6010E9442
S11309D0F10588230CF46BC020E030E040EF51E4D3
S11309E0C701B6010E941A0788235CF020E030E0BA
S11309F044EB52E4C701B6010E94F10588230CF4CC
S1130A0058C020E030E044EB52E4C701B6010E9434
S1130A101A0788235CF020E030E046E153E4C70184
S1130A20B6010E94F10588230CF445C020E030E0B3
S1130A3046E153E4C701B6010E941A07882354F023
S1130A4020E030E042E553E4C701B6010E94F1051D
S1130A5088239CF120E030E042E553E4C701B6016D
S1130A600E941A07882354F020E030E047E853E45A
S1130A70C701B6010E94F10588230CF120E030E0A3
S1130A8047E853E4C701B6010E941A07882354F0CB
S1130A9020E030E84CEA53E4C701B6010E94F105B6
S1130AA088237CF00FC080E00DC080E00BC081E0A3
S1130AB009C082E007C083E005C084E003C085E08C
S1130AC001C086E0FF90EF90DF90CF9008951092E0
S1130AD0C5008093C40088E18093C10086E08093C0
S1130AE0C2000895E0ECF0E0908195FFFDCF809383
S1130AF0C6000895CF93C82F892F0E9472058C2FAA
S1130B000E947205CF9108955058BB27AA270E94CE
S1130B109C050C94E0060E94D20638F00E94D90687
S1130B2020F039F49F3F19F426F40C94CF060EF408
S1130B30E095E7FB0C94C906E92F0E94F10658F3EF
S1130B40BA17620773078407950720F079F4A6F5AE
S1130B500C9413070EF4E0950B2EBA2FA02D0B0165
S1130B60B90190010C01CA01A0011124FF27591BEE
S1130B7099F0593F50F4503E68F11A16F040A22FF4
S1130B80232F342F4427585FF3CF46953795279565
S1130B90A795F0405395C9F77EF41F16BA0B620B64
S1130BA0730B840BBAF09150A1F0FF0FBB1F661FAB
S1130BB0771F881FC2F70EC0BA0F621F731F841FEE
S1130BC048F4879577956795B795F7959E3F08F014
S1130BD0B0CF9395880F08F09927EE0F97958795D6
S1130BE008950E94A50608F481E008950E940A066B
S1130BF00C94E0060E94D90658F00E94D20640F0F8
S1130C0029F45F3F29F00C94C90651110C94140780
S1130C100C94CF060E94F10668F39923B1F355238F
S1130C2091F3951B550BBB27AA27621773078407FB
S1130C3038F09F5F5F4F220F331F441FAA1FA9F391
S1130C4035D00E2E3AF0E0E832D091505040E6957F
S1130C50001CCAF72BD0FE2F29D0660F771F881FE0
S1130C60BB1F261737074807AB07B0E809F0BB0BD3
S1130C70802DBF01FF2793585F4F3AF09E3F5105E7
S1130C8078F00C94C9060C9414075F3FE4F3983E83
S1130C90D4F3869577956795B795F7959F5FC9F7D0
S1130CA0880F911D9695879597F90895E1E0660F51
S1130CB0771F881FBB1F621773078407BA0720F0CA
S1130CC0621B730B840BBA0BEE1F88F7E095089533
S1130CD0E89409C097FB3EF49095809570956195D2
S1130CE07F4F8F4F9F4F9923A9F0F92F96E9BB2788
S1130CF09395F695879577956795B795F111F8CF04
S1130D00FAF4BB0F11F460FF1BC06F5F7F4F8F4F6E
S1130D109F4F16C0882311F096E911C0772321F064
S1130D209EE8872F762F05C0662371F096E8862FFC
S1130D3070E060E02AF09A95660F771F881FDAF753
S1130D40880F9695879597F90895990F0008550F80
S1130D50AA0BE0E8FEEF16161706E807F907C0F03D
S1130D6012161306E407F50798F0621B730B840B45
S1130D70950B39F40A2661F0232B242B252B21F41F
S1130D8008950A2609F4A140A6958FEF811D811DBF
S1130D90089597F99F6780E870E060E008959FEFF9
S1130DA080EC089500240A941616170618060906FE
S1130DB0089500240A9412161306140605060895CD
S1130DC0092E0394000C11F4882352F0BB0F40F455
S1130DD0BF2B11F460FF04C06F5F7F4F8F4F9F4F95
S1130DE0089557FD9058440F551F59F05F3F71F017
S1130DF04795880F97FB991F61F09F3F79F087957E
S1130E000895121613061406551FF2CF4695F1DF06
S1130E1008C0161617061806991FF1CF8695710596
S1130E20610508940895E894BB2766277727CB01CA
S1130E3097F908950E94A50608F48FEF08950E947B
S1130E4032070C94E0060E94D20638F00E94D906BC
S1130E5020F0952311F00C94C9060C94CF061124AC
S1130E600C9414070E94F10670F3959FC1F3950F3B
S1130E7050E0551F629FF001729FBB27F00DB11D1A
S1130E80639FAA27F00DB11DAA1F649F6627B00DAA
S1130E90A11D661F829F2227B00DA11D621F739F93
S1130EA0B00DA11D621F839FA00D611D221F749FA1
S1130EB03327A00D611D231F849F600D211D822FE8
S1130EC0762F6A2F11249F5750409AF0F1F088230F
S1130ED04AF0EE0FFF1FBB1F661F771F881F91503C
S1130EE05040A9F79E3F510580F00C94C9060C941C
S1130EF014075F3FE4F3983ED4F38695779567959E
S1130F00B795F795E7959F5FC1F7FE2B880F911D65
S10F0F109695879597F90895F894FFCF03
S10F0F1C0201042903010000FFFF01038F
S9030000FC
